:10000000E6C455C3FDCFFCCF93C3FACFF9CFF8CFE9
:10001000A5C302C4F5CFF4CFF3CFF2CFF1CFF0CF29
:06002000EFCFEECFEDCFA3
:1009CE00BFE5BDBFB4E0BEBF45D2CDB7DEB72497FD
:1009DE00CDBFDEBF21962F923F92BBEFB1BBB0EFE2
:1009EE00B4BBBFEFB7BBB2B3B061B2BBB2B3B4FB73
:1009FE00B8B3B5F9B8BBB8B3B5FBB8B3B4F9B8BBB7
:100A0E00B8B3B4FBB8B3B3F9B8BBB2B3B160B2BB51
:100A1E00B8B3BB7FB8BBB2B3BF7BB2BBB3B7B46026
:100A2E00B3BFB3B7BD7FB3BFB3B7BE7FB3BFBEB5A2
:100A3E00B160BEBDBEB5B260BEBDBEB5BB7FBEBDF4
:100A4E00B5B5B460B5BDB5B5B260B5BDB5B5B1603F
:100A5E00B5BDBFB7B068BFBFB9B7B160B9BFB9B7A1
:100A6E00B460B9BFB9B7B064B9BFBBB7B064BBBFF0
:100A7E00B5B7BE7FB5BFB5B7BD7FB5BFDBDBB2E0E7
:100A8E00B09365002AE711EC02E80A95F1F71A9582
:100A9E00E1F72A95D1F700000000009166000030C2
:100AAE0009F01AC100916700003009F015C1BEE0CF
:100ABE00B0938700BEE0B0938600BEE0B0936A00AC
:100ACE00BEE0B0936900B2B3BF7BB2BB71DD0091E3
:100ADE006D00002329F400916E00002309F455C027
:100AEE00B0E0B0939300BDE0B09369000091930025
:100AFE00043108F04AC000916D00002381F000918E
:100B0E006500015000936500013018F4B1E0B09318
:100B1E006500B0E0B0936D00B0E0B093930000912B
:100B2E006E00002391F000916500102F1F5F10934F
:100B3E00650004E6011718F4B4E6B0936500B0E062
:100B4E00B0936E00B0E0B093930008EC4091650056
:100B5E00A6DC002E0FEF00190093680000919300A1
:100B6E000F5F0093930020906500B0E03B2ED9DC20
:100B7E0025E01FED0CEB0A95F1F71A95E1F72A9592
:100B8E00D1F70000000014DDB1CF00916C000023FE
:100B9E0029F400916B00002309F493C0B0E0B093E8
:100BAE009300BCE0B093690000919300043108F00B
:100BBE0088C000916B00002391F140E050E060E8A6
:100BCE007FE30091600010916100209162003091EE
:100BDE006300DDDC009360001093610020936200DF
:100BEE003093630040E050E068EC72E4DADC0028F9
:100BFE00B0E009F0B1E00B2F002359F0B0E0B09354
:100C0E006000B0936100B8ECB0936200B2E4B093B0
:100C1E006300B0E0B0936B00B0E0B093930000912E
:100C2E006C00002391F10091600010916100209101
:100C3E0062003091630040E050E060E87FE326DD23
:100C4E000093600010936100209362003093630064
:100C5E0040E050E068E473E4DCDB0028B0E009F02B
:100C6E00B1E00B2F002359F0B0E0B0936000B093C9
:100C7E006100B8E4B0936200B3E4B0936300B0E0F7
:100C8E00B0936C00B0E0B0939300009193000F5FAF
:100C9E00009393000091600010916100209162001A
:100CAE003091630008DC18013CDC23E010E70DE511
:100CBE000A95F1F71A95E1F72A95D1F7000078DC3D
:100CCE0073CF00916F00002331F0B0E0B0936F004E
:100CDE00B1E0B0936700E1CE00916600013009F0FB
:100CEE0065C0BCE0B0936900009188001091890046
:100CFE0020918A0030918B0049E05FE66FE37EE33E
:100D0E00FEDB4AE259EE6DE372E4C0DC0883198320
:100D1E002A833B8300938C0010938D0020938E00CA
:100D2E0030938F0040E050E060E87EE30091600079
:100D3E0010916100209162003091630028DC48819F
:100D4E0059816A817B8165DB0028B0E009F0B1E052
:100D5E000B2F002331F0B2B3B064B2BBB5B3B062A7
:100D6E00B5BB00916000109161002091620030913E
:100D7E00630040E050E060E87EE388DCA801B90142
:100D8E0000918C0010918D0020918E0030918F007B
:100D9E0040DB002800E009F001E0002331F0B2B39F
:100DAE00BF7BB2BBB5B3BF7DB5BB96CF2AE711EC07
:100DBE0002E80A95F1F71A95E1F72A95D1F70000A6
:100DCE00000000916700013009F03EC0B2B3BF7B56
:100DDE00B2BB2224E5D926E930E0021713074CF402
:100DEE00B9B7BF7BB9BFB8B3B460B8BBB2B3BE7F3F
:100DFE00B2BBDEDBBFE0B0938700B0E1B0938600FC
:100E0E00B1E1B0936A00B2E1B093690000916F0056
:100E1E000023C9F0B0E0B0936700B0E0B093660075
:100E2E00B9B7B064B9BFB8B3BB7FB8BBB2B3B1602A
:100E3E00B2BB00916F00002331F0BADBB0E0B0938B
:100E4E006F009ADBF6CFBDCF28CE3F902F90FFCF0D
:000E5E0094
:10024200B9EFB0939100B0E0B0939200B7E8B6B9BD
:06025200B0E0B7B9089509
:1005BE002F92B1E02B2EF4DD28EE33E00217130755
:1005CE000CF062C024E01CE004E30A95F1F71A95E2
:1005DE00E1F72A95D1F700000000B1E02B2EE0DD07
:1005EE0027EF31E0021713075CF4B1E02B2ED8DDB4
:1005FE002FEC31E0201731071CF4B1E0B0936E0000
:10060E00B1E02B2ECDDD2CEA31E0021713075CF49E
:10061E00B1E02B2EC5DD24E831E0201731071CF4A4
:10062E00B1E0B0936D00B1E02B2EBADD2CE431E0D9
:10063E00021713075CF4B1E02B2EB2DD24E231E099
:10064E00201731071CF4B1E0B0936C00B1E02B2EF3
:10065E00A7DD2BEC30E0021713075CF4B1E02B2E74
:10066E009FDD23EA30E0201731071CF4B1E0B09390
:10067E006B00B1E02B2E94DD24E130E0021713075E
:0C068E001CF4B1E0B0936F002F900895B1
:1001AE00B0E0B0938400B093850044E1403079F024
:1001BE00B0D12091840030918500020F131F00935F
:1001CE00840010938500042F0150402FEFCF2F9203
:1001DE0044E150E00091840010918500A5D08B0180
:0401EE002F900895B1
:0605200090DE67DE089585
:1001F20007B1007E022907B9B6B1B064B6B9B6B18B
:10020200B6FF01C0FCCF24B130E005B1102F0027AA
:06021200022B132B0895DE
:10033600C801BA0197FB092E07260AD077FD04D01B
:100346000CD006D000201AF4709561957F4F089561
:10035600F6F7909581959F4F0895AA1BBB1B51E117
:1003660007C0AA1FBB1FA617B70710F0A61BB70B1F
:10037600881F991F5A95A9F780959095BC01CD01C4
:040386000895089539
:100530003F922F9244E650E08101FDDE8B012F9027
:100540003F9000939400009387003F922F9244E6DF
:1005500050E08101F0DE8C012F903F9018013F9216
:100560002F924AE050E0E7DE8B012F903F900093FE
:100570009400009386004AE050E08101DCDE8C01AB
:0605800000936A000895DB
:1005860027E017E10BE60A95F1F71A95E1F72A95A8
:06059600D1F700000895FA
:0A05260005900D920197E1F708958A
:10050C00042E152E262E372E44DF002E112E222ED1
:04051C00332E0895DD
:10039E003CDF81F1E62ED52EC42EB32EA22E912E49
:1003AE00802E002D112D222D332D2FDF19F16E25CC
:1003BE004C0D5D1D40385307F4F441387FEF57075D
:1003CE00FCF088279927AA27BB2770E2B695A79538
:1003DE0097958795379527951795079520F4880D4E
:1003EE00991DAA1DBB1D7A9589F7032F3A2F292F28
:1003FE00182F42DE0AC00FEF102F2FE73FE7FACF7C
:0C040E000027102F202F302FF5CF08956D
:100218002EDF79F0632F6078220F331F432F5FE7BB
:10022800451B55275040269530E8232B33279894B3
:0A02380003C04427552766270895E8
:10007600002329F4112319F4222309F433230895C4
:000086007A
:10008600F7DF11F19F938F938EE790E0332351F0C2
:10009600369527951795079548175907B4F44F5F76
:1000A6005F4FF4CF80959095019622239AF0000F2A
:1000B600111F221F481759071CF041505040F5CF19
:1000C600002711272227332708C033270FEF102FC9
:0C00D6002FE7322F8F919F91BADF089521
:1000540010D039F041585F4F342F220F3695279531
:04006400362B08959A
:10069A00042E152E262E372EDADD002E112E222EAE
:0406AA00332E08954E
:06025800E8944EDF08955A
:1000F800B7DF09F441C0E62ED52EC42EB32EA22EAA
:10010800912E802E002D112D222D332DA9DF09F4DB
:100118003DC0842F952F8C199D09B9F072F49095E4
:10012800809501964C2D5D2D883180F53595279564
:10013800179507950197D1F708C08831E8F4B59469
:10014800A794979487940197D1F766272EF0080D06
:10015800191D2A1D3B1D09C0801A910AA20AB30A5B
:10016800082D192D2A2D3B2D332312F474D060E865
:1001780086DF01C06BDF16C0002D112D222D332D17
:10018800D6F775DFC1F340E83427F5CF082D192DD0
:100198002A2D3B2D4C2D5D2D6E2D33235AF75BD028
:0601A80060E8E8CF0895B5
:0E006800D7D021F0662309F0F6D098940895C1
:10025E0000951095209530950F5F1F4F2F4F3F4FF4
:02026E000895F1
:10059C00042E152E262E372E3ADF002E112E222E4B
:0405AC00332E08954D
:06041A0068946DDE0895F8
:0E05B0005FDE1CF40024039401C000240895B3
:0E027000042E152E262E372E34DF002308957F
:1000E2009BD1332332F0C6DF11F001E003C00027B9
:0600F20001C00FEF0895AC
:10042000002E112E222E332E042F152F262F372F7C
:1004300058DE00231CF40024039401C00024089516
:00044000BC
:1004AC00992779E004C0991F941708F0941B001F3A
:0804BC007A95C9F70095089537
:1004C400A9DEF1F05523C2F04F31A8F44731C1F051
:1004D40050F44195495E05C03595279517950795C4
:1004E4004A95D1F70DC04751000F111F221F331F2A
:1004F4004A95D1F705C03FE7232F132F032F03C0DD
:08050400662309F0AADE089548
:100E6200A0E6B0E0E6E2F0E088E290E05BDB089525
:100818000F921F922F923F924F925F926F927F9208
:100828008F929F92AF92BF92CF92DF92EF920F93E7
:100838001F932F933F934F935F936F937F938F9360
:100848009F93EF93FF93BF93BFB7BF932F92222439
:1008580063DE20E0322FF0DD40918800509189005E
:1008680060918A0070918B0095DE40E050E060E472
:1008780070E4E5DD409188005091890060918A001C
:1008880070918B0006DF00938800109389002093F5
:100898008A0030938B0000916400102F1F5F109323
:1008A800640004E0011718F4B1E0B093640000910B
:1008B80064000130B9F4B8B3B77FB8BBB8B3B0615E
:1008C800B8BBB8B3B062B8BBB2B3B061B2BB10E7E3
:1008D80020E000918700E02FF0E0E10FF21F008197
:1008E800202EB7DD009164000230B9F4B8B3B860C7
:1008F800B8BBB8B3BF7EB8BBB8B3B062B8BBB2B30D
:10090800B061B2BB10E720E000918600E02FF0E074
:10091800E10FF21F0081202E9CDD0091640003305E
:10092800B9F4B8B3B860B8BBB8B3B061B8BBB8B3C2
:10093800BF7DB8BBB2B3B061B2BB10E720E0009195
:100948006A00E02FF0E0E10FF21F0081202E81DD28
:10095800009164000430B9F4B8B3B860B8BBB8B358
:10096800B061B8BBB8B3B062B8BBB2B3BF7EB2BBFC
:1009780010E720E000916900E02FF0E0E10FF21F9E
:100988000081202E66DD2F90BF91BFBFBF91FF91E0
:10099800EF919F918F917F916F915F914F913F91CF
:1009A8002F911F910F91EF90DF90CF90BF90AF9054
:1009B8009F908F907F906F905F904F903F902F9077
:0609C8001F900F9018952E
:10045A00B8E0B093900000919000003009F100914B
:10046A009000015000939000B02F01E010E0BB23F0
:10047A0021F0000F111FBA95E1F702211070B02F79
:10048A00B12B11F001E001C000E000FBB8B3B1F9F3
:10049A00B8BBB8B3BE7FB8BBB8B3B160B8BBDBCF2B
:0204AA000895B3
:060440006894A3DF08959B
:10038A0047E16627552726F0332312F463DF60E836
:04039A0075DE08956F
:10044600042E152E262E372E17DF002E112E222EC5
:04045600332E0895A4
:10027E003F932F931F930F93002D112D222D332D6E
:10028E00C4DF09F44BC0E62ED52EC42EB32EA22EFB
:10029E00912E802E0F911F912F913F91B6DF61F11C
:1002AE006E254C195D09403853073CF541387FEFF8
:1002BE0057077CF180E27724632E522E412E302F89
:1002CE00222711270027000F111F221F331F441C46
:1002DE00551C661C771C28F0481859086A087B08BC
:1002EE0004C0480C591C6A1C7B1C0AF001608A95DC
:1002FE0051F741505040C0DE16C00FEF102F2FE7C0
:10030E003FE76623C9F3B0DEB9F3342D30E8342568
:10031E00F3CF0027102F202F302FEECF0F900F90FE
:08032E000F900F90EACF089533
:10075C000F921F922F923F924F925F926F927F92C5
:10076C008F929F92AF92BF92CF92DF92EF92FF92B5
:10077C000F931F932F933F934F935F936F937F939D
:10078C008F939F93AF93BF93CF93DF93EF93FF938D
:10079C00EF93FF93BF93BFB7BF932F923F920091FC
:1007AC006600013059F400918C0010918D0020915D
:1007BC008E0030918F0080DE1801B4DE3F902F90B8
:1007CC00BF91BFBFBF91FF91EF91FF91EF91DF916F
:1007DC00CF91BF91AF919F918F917F916F915F91CD
:1007EC004F913F912F911F910F91FF90EF90DF90C0
:1007FC00CF90BF90AF909F908F907F906F905F90B5
:0C080C004F903F902F901F900F90189578
:100730000F93EF93FF93BF93BFB7BF93B2B3B06272
:10074000B2BBB2B3BF7DB2BB0091680004BDBF9124
:0C075000BFBFBF91FF91EF910F91189572
:1006AE000F931F932F933F93EF93FF93BF93BFB778
:1006BE00BF9300916600013051F4B2B3BF7BB2BB61
:1006CE00B5B3BF7DB5BBB0E0B093660003C0B1E07B
:1006DE00B09366002DE01DE208ED0A95F1F71A952C
:1006EE00E1F72A95D1F700000000B0B3B2FD04C0C7
:1006FE00B0E0B0939300F9CF2DE01DE208ED0A951E
:10070E00F1F71A95E1F72A95D1F700000000BF9195
:10071E00BFBFBF91FF91EF913F912F911F910F910D
:02072E0018951C
:04002600000034435F
:01002A0000D5
:01002B000ACA
:01002C0000D3
:01002D0001D1
:01002E00E1F0
:01002F000CC4
:0100300000CF
:0100310000CE
:0100320000CD
:0100330000CC
:0100340000CB
:0100350000CA
:10003600C0F9A4B0999282F88090FFC69CA7A392BB
:04004600878391C259
:02004A000000B4
:01004C0000B3
:01004D0000B2
:00000001FF
